{
  "contractName": "AgricultureTraceability",
  "abi": [
    {
      "inputs": [],
      "name": "productCount",
      "outputs": [
        {
          "internalType": "uint256",
          "name": "",
          "type": "uint256"
        }
      ],
      "stateMutability": "view",
      "type": "function",
      "constant": true
    },
    {
      "inputs": [
        {
          "internalType": "uint256",
          "name": "",
          "type": "uint256"
        }
      ],
      "name": "products",
      "outputs": [
        {
          "internalType": "uint256",
          "name": "id",
          "type": "uint256"
        },
        {
          "internalType": "string",
          "name": "cropName",
          "type": "string"
        },
        {
          "internalType": "uint256",
          "name": "price",
          "type": "uint256"
        },
        {
          "internalType": "address payable",
          "name": "farmer",
          "type": "address"
        },
        {
          "internalType": "address",
          "name": "owner",
          "type": "address"
        }
      ],
      "stateMutability": "view",
      "type": "function",
      "constant": true
    },
    {
      "inputs": [
        {
          "internalType": "string",
          "name": "_cropName",
          "type": "string"
        },
        {
          "internalType": "uint256",
          "name": "_price",
          "type": "uint256"
        }
      ],
      "name": "addProduct",
      "outputs": [],
      "stateMutability": "nonpayable",
      "type": "function"
    },
    {
      "inputs": [
        {
          "internalType": "uint256",
          "name": "_id",
          "type": "uint256"
        }
      ],
      "name": "buyProduct",
      "outputs": [],
      "stateMutability": "payable",
      "type": "function",
      "payable": true
    }
  ],
  "bytecode": "0x60806040526000805534801561001457600080fd5b50610e26806100246000396000f3fe60806040526004361061003f5760003560e01c80637acc0b20146100445780638642269e14610085578063b15247d9146100a1578063e0f6ef87146100ca575b600080fd5b34801561005057600080fd5b5061006b600480360381019061006691906105b7565b6100f5565b60405161007c9594939291906106e5565b60405180910390f35b61009f600480360381019061009a91906105b7565b6101f3565b005b3480156100ad57600080fd5b506100c860048036038101906100c39190610874565b6103e5565b005b3480156100d657600080fd5b506100df610567565b6040516100ec91906108d0565b60405180910390f35b600160205280600052604060002060009150905080600001549080600101805461011e9061091a565b80601f016020809104026020016040519081016040528092919081815260200182805461014a9061091a565b80156101975780601f1061016c57610100808354040283529160200191610197565b820191906000526020600020905b81548152906001019060200180831161017a57829003601f168201915b5050505050908060020154908060030160009054906101000a900473ffffffffffffffffffffffffffffffffffffffff16908060040160009054906101000a900473ffffffffffffffffffffffffffffffffffffffff16905085565b60008111801561020557506000548111155b610244576040517f08c379a000000000000000000000000000000000000000000000000000000000815260040161023b90610997565b60405180910390fd5b6000600160008381526020019081526020016000209050806002015434146102a1576040517f08c379a000000000000000000000000000000000000000000000000000000000815260040161029890610a03565b60405180910390fd5b8060030160009054906101000a900473ffffffffffffffffffffffffffffffffffffffff1673ffffffffffffffffffffffffffffffffffffffff163373ffffffffffffffffffffffffffffffffffffffff1603610333576040517f08c379a000000000000000000000000000000000000000000000000000000000815260040161032a90610a6f565b60405180910390fd5b8060030160009054906101000a900473ffffffffffffffffffffffffffffffffffffffff1673ffffffffffffffffffffffffffffffffffffffff166108fc349081150290604051600060405180830381858888f1935050505015801561039d573d6000803e3d6000fd5b50338160040160006101000a81548173ffffffffffffffffffffffffffffffffffffffff021916908373ffffffffffffffffffffffffffffffffffffffff1602179055505050565b60008111610428576040517f08c379a000000000000000000000000000000000000000000000000000000000815260040161041f90610adb565b60405180910390fd5b60008081548092919061043a90610b2a565b91905055506040518060a0016040528060005481526020018381526020018281526020013373ffffffffffffffffffffffffffffffffffffffff1681526020013373ffffffffffffffffffffffffffffffffffffffff1681525060016000805481526020019081526020016000206000820151816000015560208201518160010190816104c79190610d1e565b506040820151816002015560608201518160030160006101000a81548173ffffffffffffffffffffffffffffffffffffffff021916908373ffffffffffffffffffffffffffffffffffffffff16021790555060808201518160040160006101000a81548173ffffffffffffffffffffffffffffffffffffffff021916908373ffffffffffffffffffffffffffffffffffffffff1602179055509050505050565b60005481565b6000604051905090565b600080fd5b600080fd5b6000819050919050565b61059481610581565b811461059f57600080fd5b50565b6000813590506105b18161058b565b92915050565b6000602082840312156105cd576105cc610577565b5b60006105db848285016105a2565b91505092915050565b6105ed81610581565b82525050565b600081519050919050565b600082825260208201905092915050565b60005b8381101561062d578082015181840152602081019050610612565b60008484015250505050565b6000601f19601f8301169050919050565b6000610655826105f3565b61065f81856105fe565b935061066f81856020860161060f565b61067881610639565b840191505092915050565b600073ffffffffffffffffffffffffffffffffffffffff82169050919050565b60006106ae82610683565b9050919050565b6106be816106a3565b82525050565b60006106cf82610683565b9050919050565b6106df816106c4565b82525050565b600060a0820190506106fa60008301886105e4565b818103602083015261070c818761064a565b905061071b60408301866105e4565b61072860608301856106b5565b61073560808301846106d6565b9695505050505050565b600080fd5b600080fd5b7f4e487b7100000000000000000000000000000000000000000000000000000000600052604160045260246000fd5b61078182610639565b810181811067ffffffffffffffff821117156107a05761079f610749565b5b80604052505050565b60006107b361056d565b90506107bf8282610778565b919050565b600067ffffffffffffffff8211156107df576107de610749565b5b6107e882610639565b9050602081019050919050565b82818337600083830152505050565b6000610817610812846107c4565b6107a9565b90508281526020810184848401111561083357610832610744565b5b61083e8482856107f5565b509392505050565b600082601f83011261085b5761085a61073f565b5b813561086b848260208601610804565b91505092915050565b6000806040838503121561088b5761088a610577565b5b600083013567ffffffffffffffff8111156108a9576108a861057c565b5b6108b585828601610846565b92505060206108c6858286016105a2565b9150509250929050565b60006020820190506108e560008301846105e4565b92915050565b7f4e487b7100000000000000000000000000000000000000000000000000000000600052602260045260246000fd5b6000600282049050600182168061093257607f821691505b602082108103610945576109446108eb565b5b50919050565b7f50726f6475637420646f6573206e6f7420657869737400000000000000000000600082015250565b60006109816016836105fe565b915061098c8261094b565b602082019050919050565b600060208201905081810360008301526109b081610974565b9050919050565b7f496e636f72726563742070726963650000000000000000000000000000000000600082015250565b60006109ed600f836105fe565b91506109f8826109b7565b602082019050919050565b60006020820190508181036000830152610a1c816109e0565b9050919050565b7f4661726d65722063616e6e6f7420627579206f776e2070726f64756374000000600082015250565b6000610a59601d836105fe565b9150610a6482610a23565b602082019050919050565b60006020820190508181036000830152610a8881610a4c565b9050919050565b7f5072696365206d7573742062652067726561746572207468616e207a65726f00600082015250565b6000610ac5601f836105fe565b9150610ad082610a8f565b602082019050919050565b60006020820190508181036000830152610af481610ab8565b9050919050565b7f4e487b7100000000000000000000000000000000000000000000000000000000600052601160045260246000fd5b6000610b3582610581565b91507fffffffffffffffffffffffffffffffffffffffffffffffffffffffffffffffff8203610b6757610b66610afb565b5b600182019050919050565b60008190508160005260206000209050919050565b60006020601f8301049050919050565b600082821b905092915050565b600060088302610bd47fffffffffffffffffffffffffffffffffffffffffffffffffffffffffffffffff82610b97565b610bde8683610b97565b95508019841693508086168417925050509392505050565b6000819050919050565b6000610c1b610c16610c1184610581565b610bf6565b610581565b9050919050565b6000819050919050565b610c3583610c00565b610c49610c4182610c22565b848454610ba4565b825550505050565b600090565b610c5e610c51565b610c69818484610c2c565b505050565b5b81811015610c8d57610c82600082610c56565b600181019050610c6f565b5050565b601f821115610cd257610ca381610b72565b610cac84610b87565b81016020851015610cbb578190505b610ccf610cc785610b87565b830182610c6e565b50505b505050565b600082821c905092915050565b6000610cf560001984600802610cd7565b1980831691505092915050565b6000610d0e8383610ce4565b9150826002028217905092915050565b610d27826105f3565b67ffffffffffffffff811115610d4057610d3f610749565b5b610d4a825461091a565b610d55828285610c91565b600060209050601f831160018114610d885760008415610d76578287015190505b610d808582610d02565b865550610de8565b601f198416610d9686610b72565b60005b82811015610dbe57848901518255600182019150602085019450602081019050610d99565b86831015610ddb5784890151610dd7601f891682610ce4565b8355505b6001600288020188555050505b50505050505056fea2646970667358221220b4479295a20965e57ad25d128a104b0ff1d4e5e7256c676d0c85296f52b1df7b64736f6c63430008140033",
  "immutableReferences": {},
  "source": "// SPDX-License-Identifier: MIT\r\npragma solidity ^0.8.0;\r\n\r\ncontract AgricultureTraceability {\r\n\r\n    struct Product {\r\n        uint id;\r\n        string cropName;\r\n        uint price;\r\n        address payable farmer;\r\n        address owner;\r\n    }\r\n\r\n    uint public productCount = 0;\r\n\r\n    mapping(uint => Product) public products;\r\n\r\n    function addProduct(string memory _cropName, uint _price) public {\r\n\r\n        require(_price > 0, \"Price must be greater than zero\");\r\n\r\n        productCount++;\r\n\r\n        products[productCount] = Product(\r\n            productCount,\r\n            _cropName,\r\n            _price,\r\n            payable(msg.sender),\r\n            msg.sender\r\n        );\r\n    }\r\n\r\n    function buyProduct(uint _id) public payable {\r\n\r\n        require(_id > 0 && _id <= productCount, \"Product does not exist\");\r\n\r\n        Product storage p = products[_id];\r\n\r\n        require(msg.value == p.price, \"Incorrect price\");\r\n       require(msg.sender != p.farmer, \"Farmer cannot buy own product\");\r\n\r\n        p.farmer.transfer(msg.value);\r\n\r\n        p.owner = msg.sender;\r\n    }\r\n}",
  "sourcePath": "C:\\Users\\Swathi\\Documents\\agriculture_traceability\\contracts\\AgricultureTraceability.sol",
  "compiler": {
    "name": "solc",
    "version": "0.8.20+commit.a1b79de6.Emscripten.clang"
  },
  "schemaVersion": "3.4.16",
  "updatedAt": "2026-03-23T05:22:13.626Z",
  "networkType": "ethereum",
  "devdoc": {
    "kind": "dev",
    "methods": {},
    "version": 1
  },
  "userdoc": {
    "kind": "user",
    "methods": {},
    "version": 1
  }
}