{
  "contractName": "Donation",
  "abi": [
    {
      "inputs": [],
      "stateMutability": "nonpayable",
      "type": "constructor"
    },
    {
      "inputs": [],
      "name": "admin",
      "outputs": [
        {
          "internalType": "address",
          "name": "",
          "type": "address"
        }
      ],
      "stateMutability": "view",
      "type": "function",
      "constant": true
    },
    {
      "inputs": [
        {
          "internalType": "uint256",
          "name": "",
          "type": "uint256"
        }
      ],
      "name": "donations",
      "outputs": [
        {
          "internalType": "address",
          "name": "donor",
          "type": "address"
        },
        {
          "internalType": "address",
          "name": "receiver",
          "type": "address"
        },
        {
          "internalType": "uint256",
          "name": "amount",
          "type": "uint256"
        },
        {
          "internalType": "string",
          "name": "message",
          "type": "string"
        },
        {
          "internalType": "uint256",
          "name": "timestamp",
          "type": "uint256"
        }
      ],
      "stateMutability": "view",
      "type": "function",
      "constant": true
    },
    {
      "inputs": [
        {
          "internalType": "uint256",
          "name": "",
          "type": "uint256"
        }
      ],
      "name": "orgAddresses",
      "outputs": [
        {
          "internalType": "address",
          "name": "",
          "type": "address"
        }
      ],
      "stateMutability": "view",
      "type": "function",
      "constant": true
    },
    {
      "inputs": [
        {
          "internalType": "address",
          "name": "",
          "type": "address"
        }
      ],
      "name": "orgNames",
      "outputs": [
        {
          "internalType": "string",
          "name": "",
          "type": "string"
        }
      ],
      "stateMutability": "view",
      "type": "function",
      "constant": true
    },
    {
      "inputs": [
        {
          "internalType": "address",
          "name": "",
          "type": "address"
        }
      ],
      "name": "trustedOrgs",
      "outputs": [
        {
          "internalType": "bool",
          "name": "",
          "type": "bool"
        }
      ],
      "stateMutability": "view",
      "type": "function",
      "constant": true
    },
    {
      "inputs": [
        {
          "internalType": "address",
          "name": "_org",
          "type": "address"
        },
        {
          "internalType": "string",
          "name": "_name",
          "type": "string"
        }
      ],
      "name": "addTrustedOrg",
      "outputs": [],
      "stateMutability": "nonpayable",
      "type": "function"
    },
    {
      "inputs": [
        {
          "internalType": "address",
          "name": "_receiver",
          "type": "address"
        },
        {
          "internalType": "string",
          "name": "_message",
          "type": "string"
        }
      ],
      "name": "donate",
      "outputs": [],
      "stateMutability": "payable",
      "type": "function",
      "payable": true
    },
    {
      "inputs": [],
      "name": "getDonations",
      "outputs": [
        {
          "components": [
            {
              "internalType": "address",
              "name": "donor",
              "type": "address"
            },
            {
              "internalType": "address",
              "name": "receiver",
              "type": "address"
            },
            {
              "internalType": "uint256",
              "name": "amount",
              "type": "uint256"
            },
            {
              "internalType": "string",
              "name": "message",
              "type": "string"
            },
            {
              "internalType": "uint256",
              "name": "timestamp",
              "type": "uint256"
            }
          ],
          "internalType": "struct Donation.DonationDetails[]",
          "name": "",
          "type": "tuple[]"
        }
      ],
      "stateMutability": "view",
      "type": "function",
      "constant": true
    },
    {
      "inputs": [
        {
          "internalType": "address",
          "name": "_org",
          "type": "address"
        }
      ],
      "name": "getOrgName",
      "outputs": [
        {
          "internalType": "string",
          "name": "",
          "type": "string"
        }
      ],
      "stateMutability": "view",
      "type": "function",
      "constant": true
    },
    {
      "inputs": [],
      "name": "getAllOrgs",
      "outputs": [
        {
          "internalType": "address[]",
          "name": "",
          "type": "address[]"
        }
      ],
      "stateMutability": "view",
      "type": "function",
      "constant": true
    }
  ],
  "bytecode": "0x608060405234801561001057600080fd5b50336000806101000a81548173ffffffffffffffffffffffffffffffffffffffff021916908373ffffffffffffffffffffffffffffffffffffffff1602179055506117b0806100606000396000f3fe6080604052600436106100915760003560e01c8063c89782a211610059578063c89782a214610194578063e25f8416146101d1578063e8ae2ef9146101fc578063f851a44014610225578063f8626af81461025057610091565b80631614658a1461009657806321d0326f146100d3578063429c14d71461011057806352be03cf1461012c57806361c30fdc14610169575b600080fd5b3480156100a257600080fd5b506100bd60048036038101906100b89190610cbd565b610291565b6040516100ca9190610d05565b60405180910390f35b3480156100df57600080fd5b506100fa60048036038101906100f59190610d56565b6102b1565b6040516101079190610d92565b60405180910390f35b61012a60048036038101906101259190610ef3565b6102f0565b005b34801561013857600080fd5b50610153600480360381019061014e9190610cbd565b610542565b6040516101609190610fce565b60405180910390f35b34801561017557600080fd5b5061017e6105e2565b60405161018b91906110ae565b60405180910390f35b3480156101a057600080fd5b506101bb60048036038101906101b69190610cbd565b610670565b6040516101c89190610fce565b60405180910390f35b3480156101dd57600080fd5b506101e6610741565b6040516101f39190611261565b60405180910390f35b34801561020857600080fd5b50610223600480360381019061021e9190610ef3565b6108f2565b005b34801561023157600080fd5b5061023a610b19565b6040516102479190610d92565b60405180910390f35b34801561025c57600080fd5b5061027760048036038101906102729190610d56565b610b3d565b604051610288959493929190611292565b60405180910390f35b60046020528060005260406000206000915054906101000a900460ff1681565b600181815481106102c157600080fd5b906000526020600020016000915054906101000a900473ffffffffffffffffffffffffffffffffffffffff1681565b60003411610333576040517f08c379a000000000000000000000000000000000000000000000000000000000815260040161032a90611338565b60405180910390fd5b600460008373ffffffffffffffffffffffffffffffffffffffff1673ffffffffffffffffffffffffffffffffffffffff16815260200190815260200160002060009054906101000a900460ff166103bf576040517f08c379a00000000000000000000000000000000000000000000000000000000081526004016103b6906113a4565b60405180910390fd5b8173ffffffffffffffffffffffffffffffffffffffff166108fc349081150290604051600060405180830381858888f19350505050158015610405573d6000803e3d6000fd5b5060026040518060a001604052803373ffffffffffffffffffffffffffffffffffffffff1681526020018473ffffffffffffffffffffffffffffffffffffffff16815260200134815260200183815260200142815250908060018154018082558091505060019003906000526020600020906005020160009091909190915060008201518160000160006101000a81548173ffffffffffffffffffffffffffffffffffffffff021916908373ffffffffffffffffffffffffffffffffffffffff16021790555060208201518160010160006101000a81548173ffffffffffffffffffffffffffffffffffffffff021916908373ffffffffffffffffffffffffffffffffffffffff16021790555060408201518160020155606082015181600301908161053191906115d0565b506080820151816004015550505050565b60036020528060005260406000206000915090508054610561906113f3565b80601f016020809104026020016040519081016040528092919081815260200182805461058d906113f3565b80156105da5780601f106105af576101008083540402835291602001916105da565b820191906000526020600020905b8154815290600101906020018083116105bd57829003601f168201915b505050505081565b6060600180548060200260200160405190810160405280929190818152602001828054801561066657602002820191906000526020600020905b8160009054906101000a900473ffffffffffffffffffffffffffffffffffffffff1673ffffffffffffffffffffffffffffffffffffffff168152602001906001019080831161061c575b5050505050905090565b6060600360008373ffffffffffffffffffffffffffffffffffffffff1673ffffffffffffffffffffffffffffffffffffffff16815260200190815260200160002080546106bc906113f3565b80601f01602080910402602001604051908101604052809291908181526020018280546106e8906113f3565b80156107355780601f1061070a57610100808354040283529160200191610735565b820191906000526020600020905b81548152906001019060200180831161071857829003601f168201915b50505050509050919050565b60606002805480602002602001604051908101604052809291908181526020016000905b828210156108e957838290600052602060002090600502016040518060a00160405290816000820160009054906101000a900473ffffffffffffffffffffffffffffffffffffffff1673ffffffffffffffffffffffffffffffffffffffff1673ffffffffffffffffffffffffffffffffffffffff1681526020016001820160009054906101000a900473ffffffffffffffffffffffffffffffffffffffff1673ffffffffffffffffffffffffffffffffffffffff1673ffffffffffffffffffffffffffffffffffffffff1681526020016002820154815260200160038201805461084e906113f3565b80601f016020809104026020016040519081016040528092919081815260200182805461087a906113f3565b80156108c75780601f1061089c576101008083540402835291602001916108c7565b820191906000526020600020905b8154815290600101906020018083116108aa57829003601f168201915b5050505050815260200160048201548152505081526020019060010190610765565b50505050905090565b60008054906101000a900473ffffffffffffffffffffffffffffffffffffffff1673ffffffffffffffffffffffffffffffffffffffff163373ffffffffffffffffffffffffffffffffffffffff1614610980576040517f08c379a0000000000000000000000000000000000000000000000000000000008152600401610977906116ee565b60405180910390fd5b600460008373ffffffffffffffffffffffffffffffffffffffff1673ffffffffffffffffffffffffffffffffffffffff16815260200190815260200160002060009054906101000a900460ff1615610a0d576040517f08c379a0000000000000000000000000000000000000000000000000000000008152600401610a049061175a565b60405180910390fd5b6001600460008473ffffffffffffffffffffffffffffffffffffffff1673ffffffffffffffffffffffffffffffffffffffff16815260200190815260200160002060006101000a81548160ff02191690831515021790555080600360008473ffffffffffffffffffffffffffffffffffffffff1673ffffffffffffffffffffffffffffffffffffffff1681526020019081526020016000209081610ab191906115d0565b506001829080600181540180825580915050600190039060005260206000200160009091909190916101000a81548173ffffffffffffffffffffffffffffffffffffffff021916908373ffffffffffffffffffffffffffffffffffffffff1602179055505050565b60008054906101000a900473ffffffffffffffffffffffffffffffffffffffff1681565b60028181548110610b4d57600080fd5b90600052602060002090600502016000915090508060000160009054906101000a900473ffffffffffffffffffffffffffffffffffffffff16908060010160009054906101000a900473ffffffffffffffffffffffffffffffffffffffff1690806002015490806003018054610bc2906113f3565b80601f0160208091040260200160405190810160405280929190818152602001828054610bee906113f3565b8015610c3b5780601f10610c1057610100808354040283529160200191610c3b565b820191906000526020600020905b815481529060010190602001808311610c1e57829003601f168201915b5050505050908060040154905085565b6000604051905090565b600080fd5b600080fd5b600073ffffffffffffffffffffffffffffffffffffffff82169050919050565b6000610c8a82610c5f565b9050919050565b610c9a81610c7f565b8114610ca557600080fd5b50565b600081359050610cb781610c91565b92915050565b600060208284031215610cd357610cd2610c55565b5b6000610ce184828501610ca8565b91505092915050565b60008115159050919050565b610cff81610cea565b82525050565b6000602082019050610d1a6000830184610cf6565b92915050565b6000819050919050565b610d3381610d20565b8114610d3e57600080fd5b50565b600081359050610d5081610d2a565b92915050565b600060208284031215610d6c57610d6b610c55565b5b6000610d7a84828501610d41565b91505092915050565b610d8c81610c7f565b82525050565b6000602082019050610da76000830184610d83565b92915050565b600080fd5b600080fd5b6000601f19601f8301169050919050565b7f4e487b7100000000000000000000000000000000000000000000000000000000600052604160045260246000fd5b610e0082610db7565b810181811067ffffffffffffffff82111715610e1f57610e1e610dc8565b5b80604052505050565b6000610e32610c4b565b9050610e3e8282610df7565b919050565b600067ffffffffffffffff821115610e5e57610e5d610dc8565b5b610e6782610db7565b9050602081019050919050565b82818337600083830152505050565b6000610e96610e9184610e43565b610e28565b905082815260208101848484011115610eb257610eb1610db2565b5b610ebd848285610e74565b509392505050565b600082601f830112610eda57610ed9610dad565b5b8135610eea848260208601610e83565b91505092915050565b60008060408385031215610f0a57610f09610c55565b5b6000610f1885828601610ca8565b925050602083013567ffffffffffffffff811115610f3957610f38610c5a565b5b610f4585828601610ec5565b9150509250929050565b600081519050919050565b600082825260208201905092915050565b60005b83811015610f89578082015181840152602081019050610f6e565b60008484015250505050565b6000610fa082610f4f565b610faa8185610f5a565b9350610fba818560208601610f6b565b610fc381610db7565b840191505092915050565b60006020820190508181036000830152610fe88184610f95565b905092915050565b600081519050919050565b600082825260208201905092915050565b6000819050602082019050919050565b61102581610c7f565b82525050565b6000611037838361101c565b60208301905092915050565b6000602082019050919050565b600061105b82610ff0565b6110658185610ffb565b93506110708361100c565b8060005b838110156110a1578151611088888261102b565b975061109383611043565b925050600181019050611074565b5085935050505092915050565b600060208201905081810360008301526110c88184611050565b905092915050565b600081519050919050565b600082825260208201905092915050565b6000819050602082019050919050565b61110581610d20565b82525050565b600082825260208201905092915050565b600061112782610f4f565b611131818561110b565b9350611141818560208601610f6b565b61114a81610db7565b840191505092915050565b600060a08301600083015161116d600086018261101c565b506020830151611180602086018261101c565b50604083015161119360408601826110fc565b50606083015184820360608601526111ab828261111c565b91505060808301516111c060808601826110fc565b508091505092915050565b60006111d78383611155565b905092915050565b6000602082019050919050565b60006111f7826110d0565b61120181856110db565b935083602082028501611213856110ec565b8060005b8581101561124f578484038952815161123085826111cb565b945061123b836111df565b925060208a01995050600181019050611217565b50829750879550505050505092915050565b6000602082019050818103600083015261127b81846111ec565b905092915050565b61128c81610d20565b82525050565b600060a0820190506112a76000830188610d83565b6112b46020830187610d83565b6112c16040830186611283565b81810360608301526112d38185610f95565b90506112e26080830184611283565b9695505050505050565b7f53656e6420455448000000000000000000000000000000000000000000000000600082015250565b6000611322600883610f5a565b915061132d826112ec565b602082019050919050565b6000602082019050818103600083015261135181611315565b9050919050565b7f4e6f742074727573746564000000000000000000000000000000000000000000600082015250565b600061138e600b83610f5a565b915061139982611358565b602082019050919050565b600060208201905081810360008301526113bd81611381565b9050919050565b7f4e487b7100000000000000000000000000000000000000000000000000000000600052602260045260246000fd5b6000600282049050600182168061140b57607f821691505b60208210810361141e5761141d6113c4565b5b50919050565b60008190508160005260206000209050919050565b60006020601f8301049050919050565b600082821b905092915050565b6000600883026114867fffffffffffffffffffffffffffffffffffffffffffffffffffffffffffffffff82611449565b6114908683611449565b95508019841693508086168417925050509392505050565b6000819050919050565b60006114cd6114c86114c384610d20565b6114a8565b610d20565b9050919050565b6000819050919050565b6114e7836114b2565b6114fb6114f3826114d4565b848454611456565b825550505050565b600090565b611510611503565b61151b8184846114de565b505050565b5b8181101561153f57611534600082611508565b600181019050611521565b5050565b601f8211156115845761155581611424565b61155e84611439565b8101602085101561156d578190505b61158161157985611439565b830182611520565b50505b505050565b600082821c905092915050565b60006115a760001984600802611589565b1980831691505092915050565b60006115c08383611596565b9150826002028217905092915050565b6115d982610f4f565b67ffffffffffffffff8111156115f2576115f1610dc8565b5b6115fc82546113f3565b611607828285611543565b600060209050601f83116001811461163a5760008415611628578287015190505b61163285826115b4565b86555061169a565b601f19841661164886611424565b60005b828110156116705784890151825560018201915060208501945060208101905061164b565b8683101561168d5784890151611689601f891682611596565b8355505b6001600288020188555050505b505050505050565b7f4f6e6c792061646d696e2063616e206164640000000000000000000000000000600082015250565b60006116d8601283610f5a565b91506116e3826116a2565b602082019050919050565b60006020820190508181036000830152611707816116cb565b9050919050565b7f416c726561647920616464656400000000000000000000000000000000000000600082015250565b6000611744600d83610f5a565b915061174f8261170e565b602082019050919050565b6000602082019050818103600083015261177381611737565b905091905056fea264697066735822122076975396873cbed8f210be066d639e73f2bfdf29ae2de7af6966c8b404451e6d64736f6c63430008140033",
  "immutableReferences": {},
  "source": "// SPDX-License-Identifier: MIT\r\npragma solidity ^0.8.0;\r\n\r\ncontract Donation {\r\n\r\n    address public admin;\r\n\r\n    address[] public orgAddresses;\r\n\r\n    constructor() {\r\n        admin = msg.sender;\r\n    }\r\n\r\n    struct DonationDetails {\r\n        address donor;\r\n        address receiver;\r\n        uint amount;\r\n        string message;\r\n        uint timestamp;\r\n    }\r\n\r\n    DonationDetails[] public donations;\r\n\r\n    mapping(address => string) public orgNames;\r\n    mapping(address => bool) public trustedOrgs;\r\n\r\n    function addTrustedOrg(address _org, string memory _name) public {\r\n        require(msg.sender == admin, \"Only admin can add\");\r\n        require(!trustedOrgs[_org], \"Already added\");\r\n\r\n        trustedOrgs[_org] = true;\r\n        orgNames[_org] = _name;\r\n\r\n        orgAddresses.push(_org);\r\n    }\r\n\r\n    function donate(address _receiver, string memory _message) public payable {\r\n\r\n        require(msg.value > 0, \"Send ETH\");\r\n        require(trustedOrgs[_receiver], \"Not trusted\");\r\n\r\n        // 🔥 TRANSFER ETH TO ORGANIZATION\r\n        payable(_receiver).transfer(msg.value);\r\n\r\n        donations.push(DonationDetails(\r\n            msg.sender,\r\n            _receiver,\r\n            msg.value,\r\n            _message,\r\n            block.timestamp\r\n        ));\r\n    }\r\n\r\n    function getDonations() public view returns (DonationDetails[] memory) {\r\n        return donations;\r\n    }\r\n\r\n    function getOrgName(address _org) public view returns (string memory) {\r\n        return orgNames[_org];\r\n    }\r\n\r\n    function getAllOrgs() public view returns (address[] memory) {\r\n        return orgAddresses;\r\n    }\r\n}",
  "sourcePath": "C:\\Users\\Swathi\\Documents\\donation\\donation\\contracts\\Donation.sol",
  "compiler": {
    "name": "solc",
    "version": "0.8.20+commit.a1b79de6.Emscripten.clang"
  },
  "schemaVersion": "3.4.16",
  "updatedAt": "2026-03-22T05:04:09.010Z",
  "networkType": "ethereum",
  "devdoc": {
    "kind": "dev",
    "methods": {},
    "version": 1
  },
  "userdoc": {
    "kind": "user",
    "methods": {},
    "version": 1
  }
}